{
  "_format": "hh-sol-artifact-1",
  "contractName": "Mint",
  "sourceName": "contracts/Mint.sol",
  "abi": [
    {
      "inputs": [],
      "stateMutability": "payable",
      "type": "constructor"
    },
    {
      "anonymous": false,
      "inputs": [
        {
          "indexed": true,
          "internalType": "address",
          "name": "owner",
          "type": "address"
        },
        {
          "indexed": true,
          "internalType": "address",
          "name": "spender",
          "type": "address"
        },
        {
          "indexed": false,
          "internalType": "uint256",
          "name": "value",
          "type": "uint256"
        }
      ],
      "name": "Approval",
      "type": "event"
    },
    {
      "anonymous": false,
      "inputs": [
        {
          "indexed": true,
          "internalType": "address",
          "name": "from",
          "type": "address"
        },
        {
          "indexed": true,
          "internalType": "address",
          "name": "to",
          "type": "address"
        },
        {
          "indexed": false,
          "internalType": "uint256",
          "name": "value",
          "type": "uint256"
        }
      ],
      "name": "Transfer",
      "type": "event"
    },
    {
      "inputs": [
        {
          "internalType": "address",
          "name": "owner",
          "type": "address"
        },
        {
          "internalType": "address",
          "name": "spender",
          "type": "address"
        }
      ],
      "name": "allowance",
      "outputs": [
        {
          "internalType": "uint256",
          "name": "",
          "type": "uint256"
        }
      ],
      "stateMutability": "view",
      "type": "function"
    },
    {
      "inputs": [
        {
          "internalType": "address",
          "name": "spender",
          "type": "address"
        },
        {
          "internalType": "uint256",
          "name": "amount",
          "type": "uint256"
        }
      ],
      "name": "approve",
      "outputs": [
        {
          "internalType": "bool",
          "name": "",
          "type": "bool"
        }
      ],
      "stateMutability": "nonpayable",
      "type": "function"
    },
    {
      "inputs": [
        {
          "internalType": "address",
          "name": "account",
          "type": "address"
        }
      ],
      "name": "balanceOf",
      "outputs": [
        {
          "internalType": "uint256",
          "name": "",
          "type": "uint256"
        }
      ],
      "stateMutability": "view",
      "type": "function"
    },
    {
      "inputs": [],
      "name": "checkMint",
      "outputs": [
        {
          "internalType": "uint256",
          "name": "",
          "type": "uint256"
        }
      ],
      "stateMutability": "view",
      "type": "function"
    },
    {
      "inputs": [],
      "name": "decimals",
      "outputs": [
        {
          "internalType": "uint8",
          "name": "",
          "type": "uint8"
        }
      ],
      "stateMutability": "view",
      "type": "function"
    },
    {
      "inputs": [
        {
          "internalType": "address",
          "name": "spender",
          "type": "address"
        },
        {
          "internalType": "uint256",
          "name": "subtractedValue",
          "type": "uint256"
        }
      ],
      "name": "decreaseAllowance",
      "outputs": [
        {
          "internalType": "bool",
          "name": "",
          "type": "bool"
        }
      ],
      "stateMutability": "nonpayable",
      "type": "function"
    },
    {
      "inputs": [
        {
          "internalType": "address",
          "name": "spender",
          "type": "address"
        },
        {
          "internalType": "uint256",
          "name": "addedValue",
          "type": "uint256"
        }
      ],
      "name": "increaseAllowance",
      "outputs": [
        {
          "internalType": "bool",
          "name": "",
          "type": "bool"
        }
      ],
      "stateMutability": "nonpayable",
      "type": "function"
    },
    {
      "inputs": [
        {
          "internalType": "uint256",
          "name": "amount",
          "type": "uint256"
        }
      ],
      "name": "mint",
      "outputs": [],
      "stateMutability": "nonpayable",
      "type": "function"
    },
    {
      "inputs": [],
      "name": "minter",
      "outputs": [
        {
          "internalType": "address",
          "name": "",
          "type": "address"
        }
      ],
      "stateMutability": "view",
      "type": "function"
    },
    {
      "inputs": [],
      "name": "name",
      "outputs": [
        {
          "internalType": "string",
          "name": "",
          "type": "string"
        }
      ],
      "stateMutability": "view",
      "type": "function"
    },
    {
      "inputs": [
        {
          "internalType": "address",
          "name": "_in",
          "type": "address"
        }
      ],
      "name": "setWhitelist",
      "outputs": [],
      "stateMutability": "nonpayable",
      "type": "function"
    },
    {
      "inputs": [],
      "name": "symbol",
      "outputs": [
        {
          "internalType": "string",
          "name": "",
          "type": "string"
        }
      ],
      "stateMutability": "view",
      "type": "function"
    },
    {
      "inputs": [],
      "name": "totalSupply",
      "outputs": [
        {
          "internalType": "uint256",
          "name": "",
          "type": "uint256"
        }
      ],
      "stateMutability": "view",
      "type": "function"
    },
    {
      "inputs": [
        {
          "internalType": "address",
          "name": "to",
          "type": "address"
        },
        {
          "internalType": "uint256",
          "name": "amount",
          "type": "uint256"
        }
      ],
      "name": "transfer",
      "outputs": [
        {
          "internalType": "bool",
          "name": "",
          "type": "bool"
        }
      ],
      "stateMutability": "nonpayable",
      "type": "function"
    },
    {
      "inputs": [
        {
          "internalType": "address",
          "name": "from",
          "type": "address"
        },
        {
          "internalType": "address",
          "name": "to",
          "type": "address"
        },
        {
          "internalType": "uint256",
          "name": "amount",
          "type": "uint256"
        }
      ],
      "name": "transferFrom",
      "outputs": [
        {
          "internalType": "bool",
          "name": "",
          "type": "bool"
        }
      ],
      "stateMutability": "nonpayable",
      "type": "function"
    }
  ],
  "bytecode": "0x608060405260056007556040518060400160405280600981526020017f4c6f6e67657669747900000000000000000000000000000000000000000000008152506040518060400160405280600381526020017f4c4759000000000000000000000000000000000000000000000000000000000081525081600390805190602001906200008d929190620000f0565b508060049080519060200190620000a6929190620000f0565b50505033600560006101000a81548173ffffffffffffffffffffffffffffffffffffffff021916908373ffffffffffffffffffffffffffffffffffffffff16021790555062000205565b828054620000fe90620001a0565b90600052602060002090601f0160209004810192826200012257600085556200016e565b82601f106200013d57805160ff19168380011785556200016e565b828001600101855582156200016e579182015b828111156200016d57825182559160200191906001019062000150565b5b5090506200017d919062000181565b5090565b5b808211156200019c57600081600090555060010162000182565b5090565b60006002820490506001821680620001b957607f821691505b60208210811415620001d057620001cf620001d6565b5b50919050565b7f4e487b7100000000000000000000000000000000000000000000000000000000600052602260045260246000fd5b61182a80620002156000396000f3fe608060405234801561001057600080fd5b50600436106100f55760003560e01c806370a0823111610097578063a457c2d711610066578063a457c2d714610288578063a9059cbb146102b8578063dd62ed3e146102e8578063e210b7d114610318576100f5565b806370a0823114610202578063854cff2f1461023257806395d89b411461024e578063a0712d681461026c576100f5565b806318160ddd116100d357806318160ddd1461016657806323b872dd14610184578063313ce567146101b457806339509351146101d2576100f5565b806306fdde03146100fa5780630754617214610118578063095ea7b314610136575b600080fd5b610102610336565b60405161010f919061125e565b60405180910390f35b6101206103c8565b60405161012d9190611228565b60405180910390f35b610150600480360381019061014b9190611013565b6103ee565b60405161015d9190611243565b60405180910390f35b61016e610411565b60405161017b91906113a0565b60405180910390f35b61019e60048036038101906101999190610fc4565b61041b565b6040516101ab9190611243565b60405180910390f35b6101bc61044a565b6040516101c991906113bb565b60405180910390f35b6101ec60048036038101906101e79190611013565b610453565b6040516101f99190611243565b60405180910390f35b61021c60048036038101906102179190610f5f565b6104fd565b60405161022991906113a0565b60405180910390f35b61024c60048036038101906102479190610f5f565b610545565b005b61025661058d565b604051610263919061125e565b60405180910390f35b6102866004803603810190610281919061104f565b61061f565b005b6102a2600480360381019061029d9190611013565b610710565b6040516102af9190611243565b60405180910390f35b6102d260048036038101906102cd9190611013565b6107fa565b6040516102df9190611243565b60405180910390f35b61030260048036038101906102fd9190610f88565b61081d565b60405161030f91906113a0565b60405180910390f35b6103206108a4565b60405161032d91906113a0565b60405180910390f35b606060038054610345906114d0565b80601f0160208091040260200160405190810160405280929190818152602001828054610371906114d0565b80156103be5780601f10610393576101008083540402835291602001916103be565b820191906000526020600020905b8154815290600101906020018083116103a157829003601f168201915b5050505050905090565b600560009054906101000a900473ffffffffffffffffffffffffffffffffffffffff1681565b6000806103f96108eb565b90506104068185856108f3565b600191505092915050565b6000600254905090565b6000806104266108eb565b9050610433858285610abe565b61043e858585610b4a565b60019150509392505050565b60006012905090565b60008061045e6108eb565b90506104f2818585600160008673ffffffffffffffffffffffffffffffffffffffff1673ffffffffffffffffffffffffffffffffffffffff16815260200190815260200160002060008973ffffffffffffffffffffffffffffffffffffffff1673ffffffffffffffffffffffffffffffffffffffff168152602001908152602001600020546104ed91906113f2565b6108f3565b600191505092915050565b60008060008373ffffffffffffffffffffffffffffffffffffffff1673ffffffffffffffffffffffffffffffffffffffff168152602001908152602001600020549050919050565b6000600660008373ffffffffffffffffffffffffffffffffffffffff1673ffffffffffffffffffffffffffffffffffffffff1681526020019081526020016000208190555050565b60606004805461059c906114d0565b80601f01602080910402602001604051908101604052809291908181526020018280546105c8906114d0565b80156106155780601f106105ea57610100808354040283529160200191610615565b820191906000526020600020905b8154815290600101906020018083116105f857829003601f168201915b5050505050905090565b60075481600660003373ffffffffffffffffffffffffffffffffffffffff1673ffffffffffffffffffffffffffffffffffffffff1681526020019081526020016000205461066d91906113f2565b106106ad576040517f08c379a00000000000000000000000000000000000000000000000000000000081526004016106a490611300565b60405180910390fd5b6106b73382610dcb565b80600660003373ffffffffffffffffffffffffffffffffffffffff1673ffffffffffffffffffffffffffffffffffffffff168152602001908152602001600020600082825461070691906113f2565b9250508190555050565b60008061071b6108eb565b90506000600160008373ffffffffffffffffffffffffffffffffffffffff1673ffffffffffffffffffffffffffffffffffffffff16815260200190815260200160002060008673ffffffffffffffffffffffffffffffffffffffff1673ffffffffffffffffffffffffffffffffffffffff168152602001908152602001600020549050838110156107e1576040517f08c379a00000000000000000000000000000000000000000000000000000000081526004016107d890611360565b60405180910390fd5b6107ee82868684036108f3565b60019250505092915050565b6000806108056108eb565b9050610812818585610b4a565b600191505092915050565b6000600160008473ffffffffffffffffffffffffffffffffffffffff1673ffffffffffffffffffffffffffffffffffffffff16815260200190815260200160002060008373ffffffffffffffffffffffffffffffffffffffff1673ffffffffffffffffffffffffffffffffffffffff16815260200190815260200160002054905092915050565b6000600660003373ffffffffffffffffffffffffffffffffffffffff1673ffffffffffffffffffffffffffffffffffffffff16815260200190815260200160002054905090565b600033905090565b600073ffffffffffffffffffffffffffffffffffffffff168373ffffffffffffffffffffffffffffffffffffffff161415610963576040517f08c379a000000000000000000000000000000000000000000000000000000000815260040161095a90611340565b60405180910390fd5b600073ffffffffffffffffffffffffffffffffffffffff168273ffffffffffffffffffffffffffffffffffffffff1614156109d3576040517f08c379a00000000000000000000000000000000000000000000000000000000081526004016109ca906112a0565b60405180910390fd5b80600160008573ffffffffffffffffffffffffffffffffffffffff1673ffffffffffffffffffffffffffffffffffffffff16815260200190815260200160002060008473ffffffffffffffffffffffffffffffffffffffff1673ffffffffffffffffffffffffffffffffffffffff168152602001908152602001600020819055508173ffffffffffffffffffffffffffffffffffffffff168373ffffffffffffffffffffffffffffffffffffffff167f8c5be1e5ebec7d5bd14f71427d1e84f3dd0314c0f7b2291e5b200ac8c7c3b92583604051610ab191906113a0565b60405180910390a3505050565b6000610aca848461081d565b90507fffffffffffffffffffffffffffffffffffffffffffffffffffffffffffffffff8114610b445781811015610b36576040517f08c379a0000000000000000000000000000000000000000000000000000000008152600401610b2d906112c0565b60405180910390fd5b610b4384848484036108f3565b5b50505050565b600073ffffffffffffffffffffffffffffffffffffffff168373ffffffffffffffffffffffffffffffffffffffff161415610bba576040517f08c379a0000000000000000000000000000000000000000000000000000000008152600401610bb190611320565b60405180910390fd5b600073ffffffffffffffffffffffffffffffffffffffff168273ffffffffffffffffffffffffffffffffffffffff161415610c2a576040517f08c379a0000000000000000000000000000000000000000000000000000000008152600401610c2190611280565b60405180910390fd5b610c35838383610f2b565b60008060008573ffffffffffffffffffffffffffffffffffffffff1673ffffffffffffffffffffffffffffffffffffffff16815260200190815260200160002054905081811015610cbb576040517f08c379a0000000000000000000000000000000000000000000000000000000008152600401610cb2906112e0565b60405180910390fd5b8181036000808673ffffffffffffffffffffffffffffffffffffffff1673ffffffffffffffffffffffffffffffffffffffff16815260200190815260200160002081905550816000808573ffffffffffffffffffffffffffffffffffffffff1673ffffffffffffffffffffffffffffffffffffffff1681526020019081526020016000206000828254610d4e91906113f2565b925050819055508273ffffffffffffffffffffffffffffffffffffffff168473ffffffffffffffffffffffffffffffffffffffff167fddf252ad1be2c89b69c2b068fc378daa952ba7f163c4a11628f55a4df523b3ef84604051610db291906113a0565b60405180910390a3610dc5848484610f30565b50505050565b600073ffffffffffffffffffffffffffffffffffffffff168273ffffffffffffffffffffffffffffffffffffffff161415610e3b576040517f08c379a0000000000000000000000000000000000000000000000000000000008152600401610e3290611380565b60405180910390fd5b610e4760008383610f2b565b8060026000828254610e5991906113f2565b92505081905550806000808473ffffffffffffffffffffffffffffffffffffffff1673ffffffffffffffffffffffffffffffffffffffff1681526020019081526020016000206000828254610eae91906113f2565b925050819055508173ffffffffffffffffffffffffffffffffffffffff16600073ffffffffffffffffffffffffffffffffffffffff167fddf252ad1be2c89b69c2b068fc378daa952ba7f163c4a11628f55a4df523b3ef83604051610f1391906113a0565b60405180910390a3610f2760008383610f30565b5050565b505050565b505050565b600081359050610f44816117c6565b92915050565b600081359050610f59816117dd565b92915050565b600060208284031215610f7157600080fd5b6000610f7f84828501610f35565b91505092915050565b60008060408385031215610f9b57600080fd5b6000610fa985828601610f35565b9250506020610fba85828601610f35565b9150509250929050565b600080600060608486031215610fd957600080fd5b6000610fe786828701610f35565b9350506020610ff886828701610f35565b925050604061100986828701610f4a565b9150509250925092565b6000806040838503121561102657600080fd5b600061103485828601610f35565b925050602061104585828601610f4a565b9150509250929050565b60006020828403121561106157600080fd5b600061106f84828501610f4a565b91505092915050565b61108181611448565b82525050565b6110908161145a565b82525050565b60006110a1826113d6565b6110ab81856113e1565b93506110bb81856020860161149d565b6110c481611560565b840191505092915050565b60006110dc6023836113e1565b91506110e782611571565b604082019050919050565b60006110ff6022836113e1565b915061110a826115c0565b604082019050919050565b6000611122601d836113e1565b915061112d8261160f565b602082019050919050565b60006111456026836113e1565b915061115082611638565b604082019050919050565b6000611168601b836113e1565b915061117382611687565b602082019050919050565b600061118b6025836113e1565b9150611196826116b0565b604082019050919050565b60006111ae6024836113e1565b91506111b9826116ff565b604082019050919050565b60006111d16025836113e1565b91506111dc8261174e565b604082019050919050565b60006111f4601f836113e1565b91506111ff8261179d565b602082019050919050565b61121381611486565b82525050565b61122281611490565b82525050565b600060208201905061123d6000830184611078565b92915050565b60006020820190506112586000830184611087565b92915050565b600060208201905081810360008301526112788184611096565b905092915050565b60006020820190508181036000830152611299816110cf565b9050919050565b600060208201905081810360008301526112b9816110f2565b9050919050565b600060208201905081810360008301526112d981611115565b9050919050565b600060208201905081810360008301526112f981611138565b9050919050565b600060208201905081810360008301526113198161115b565b9050919050565b600060208201905081810360008301526113398161117e565b9050919050565b60006020820190508181036000830152611359816111a1565b9050919050565b60006020820190508181036000830152611379816111c4565b9050919050565b60006020820190508181036000830152611399816111e7565b9050919050565b60006020820190506113b5600083018461120a565b92915050565b60006020820190506113d06000830184611219565b92915050565b600081519050919050565b600082825260208201905092915050565b60006113fd82611486565b915061140883611486565b9250827fffffffffffffffffffffffffffffffffffffffffffffffffffffffffffffffff0382111561143d5761143c611502565b5b828201905092915050565b600061145382611466565b9050919050565b60008115159050919050565b600073ffffffffffffffffffffffffffffffffffffffff82169050919050565b6000819050919050565b600060ff82169050919050565b60005b838110156114bb5780820151818401526020810190506114a0565b838111156114ca576000848401525b50505050565b600060028204905060018216806114e857607f821691505b602082108114156114fc576114fb611531565b5b50919050565b7f4e487b7100000000000000000000000000000000000000000000000000000000600052601160045260246000fd5b7f4e487b7100000000000000000000000000000000000000000000000000000000600052602260045260246000fd5b6000601f19601f8301169050919050565b7f45524332303a207472616e7366657220746f20746865207a65726f206164647260008201527f6573730000000000000000000000000000000000000000000000000000000000602082015250565b7f45524332303a20617070726f766520746f20746865207a65726f20616464726560008201527f7373000000000000000000000000000000000000000000000000000000000000602082015250565b7f45524332303a20696e73756666696369656e7420616c6c6f77616e6365000000600082015250565b7f45524332303a207472616e7366657220616d6f756e742065786365656473206260008201527f616c616e63650000000000000000000000000000000000000000000000000000602082015250565b7f4578636565646564204d6178204d696e7420416c6c6f63617465640000000000600082015250565b7f45524332303a207472616e736665722066726f6d20746865207a65726f20616460008201527f6472657373000000000000000000000000000000000000000000000000000000602082015250565b7f45524332303a20617070726f76652066726f6d20746865207a65726f2061646460008201527f7265737300000000000000000000000000000000000000000000000000000000602082015250565b7f45524332303a2064656372656173656420616c6c6f77616e63652062656c6f7760008201527f207a65726f000000000000000000000000000000000000000000000000000000602082015250565b7f45524332303a206d696e7420746f20746865207a65726f206164647265737300600082015250565b6117cf81611448565b81146117da57600080fd5b50565b6117e681611486565b81146117f157600080fd5b5056fea26469706673582212203cd495e1dfad482448149fe68ff3a7360c14d380a8bf90fd4f0b7c4668907bc564736f6c63430008040033",
  "linkReferences": {},
  "deployedLinkReferences": {}
}