{
  "_format": "hh-sol-artifact-1",
  "contractName": "Mint",
  "sourceName": "contracts/Mint.sol",
  "abi": [
    {
      "inputs": [],
      "stateMutability": "payable",
      "type": "constructor"
    },
    {
      "anonymous": false,
      "inputs": [
        {
          "indexed": true,
          "internalType": "address",
          "name": "owner",
          "type": "address"
        },
        {
          "indexed": true,
          "internalType": "address",
          "name": "spender",
          "type": "address"
        },
        {
          "indexed": false,
          "internalType": "uint256",
          "name": "value",
          "type": "uint256"
        }
      ],
      "name": "Approval",
      "type": "event"
    },
    {
      "anonymous": false,
      "inputs": [
        {
          "indexed": true,
          "internalType": "address",
          "name": "from",
          "type": "address"
        },
        {
          "indexed": true,
          "internalType": "address",
          "name": "to",
          "type": "address"
        },
        {
          "indexed": false,
          "internalType": "uint256",
          "name": "value",
          "type": "uint256"
        }
      ],
      "name": "Transfer",
      "type": "event"
    },
    {
      "inputs": [
        {
          "internalType": "address",
          "name": "owner",
          "type": "address"
        },
        {
          "internalType": "address",
          "name": "spender",
          "type": "address"
        }
      ],
      "name": "allowance",
      "outputs": [
        {
          "internalType": "uint256",
          "name": "",
          "type": "uint256"
        }
      ],
      "stateMutability": "view",
      "type": "function"
    },
    {
      "inputs": [
        {
          "internalType": "address",
          "name": "spender",
          "type": "address"
        },
        {
          "internalType": "uint256",
          "name": "amount",
          "type": "uint256"
        }
      ],
      "name": "approve",
      "outputs": [
        {
          "internalType": "bool",
          "name": "",
          "type": "bool"
        }
      ],
      "stateMutability": "nonpayable",
      "type": "function"
    },
    {
      "inputs": [
        {
          "internalType": "address",
          "name": "account",
          "type": "address"
        }
      ],
      "name": "balanceOf",
      "outputs": [
        {
          "internalType": "uint256",
          "name": "",
          "type": "uint256"
        }
      ],
      "stateMutability": "view",
      "type": "function"
    },
    {
      "inputs": [],
      "name": "checkMint",
      "outputs": [
        {
          "internalType": "uint256",
          "name": "",
          "type": "uint256"
        }
      ],
      "stateMutability": "view",
      "type": "function"
    },
    {
      "inputs": [],
      "name": "decimals",
      "outputs": [
        {
          "internalType": "uint8",
          "name": "",
          "type": "uint8"
        }
      ],
      "stateMutability": "view",
      "type": "function"
    },
    {
      "inputs": [
        {
          "internalType": "address",
          "name": "spender",
          "type": "address"
        },
        {
          "internalType": "uint256",
          "name": "subtractedValue",
          "type": "uint256"
        }
      ],
      "name": "decreaseAllowance",
      "outputs": [
        {
          "internalType": "bool",
          "name": "",
          "type": "bool"
        }
      ],
      "stateMutability": "nonpayable",
      "type": "function"
    },
    {
      "inputs": [
        {
          "internalType": "address",
          "name": "spender",
          "type": "address"
        },
        {
          "internalType": "uint256",
          "name": "addedValue",
          "type": "uint256"
        }
      ],
      "name": "increaseAllowance",
      "outputs": [
        {
          "internalType": "bool",
          "name": "",
          "type": "bool"
        }
      ],
      "stateMutability": "nonpayable",
      "type": "function"
    },
    {
      "inputs": [
        {
          "internalType": "uint256",
          "name": "amount",
          "type": "uint256"
        }
      ],
      "name": "mint",
      "outputs": [],
      "stateMutability": "nonpayable",
      "type": "function"
    },
    {
      "inputs": [],
      "name": "minter",
      "outputs": [
        {
          "internalType": "address",
          "name": "",
          "type": "address"
        }
      ],
      "stateMutability": "view",
      "type": "function"
    },
    {
      "inputs": [],
      "name": "name",
      "outputs": [
        {
          "internalType": "string",
          "name": "",
          "type": "string"
        }
      ],
      "stateMutability": "view",
      "type": "function"
    },
    {
      "inputs": [],
      "name": "setWhitelist",
      "outputs": [],
      "stateMutability": "nonpayable",
      "type": "function"
    },
    {
      "inputs": [],
      "name": "symbol",
      "outputs": [
        {
          "internalType": "string",
          "name": "",
          "type": "string"
        }
      ],
      "stateMutability": "view",
      "type": "function"
    },
    {
      "inputs": [],
      "name": "totalSupply",
      "outputs": [
        {
          "internalType": "uint256",
          "name": "",
          "type": "uint256"
        }
      ],
      "stateMutability": "view",
      "type": "function"
    },
    {
      "inputs": [
        {
          "internalType": "address",
          "name": "to",
          "type": "address"
        },
        {
          "internalType": "uint256",
          "name": "amount",
          "type": "uint256"
        }
      ],
      "name": "transfer",
      "outputs": [
        {
          "internalType": "bool",
          "name": "",
          "type": "bool"
        }
      ],
      "stateMutability": "nonpayable",
      "type": "function"
    },
    {
      "inputs": [
        {
          "internalType": "address",
          "name": "from",
          "type": "address"
        },
        {
          "internalType": "address",
          "name": "to",
          "type": "address"
        },
        {
          "internalType": "uint256",
          "name": "amount",
          "type": "uint256"
        }
      ],
      "name": "transferFrom",
      "outputs": [
        {
          "internalType": "bool",
          "name": "",
          "type": "bool"
        }
      ],
      "stateMutability": "nonpayable",
      "type": "function"
    }
  ],
  "bytecode": "0x608060405260056007556040518060400160405280600981526020017f4c6f6e67657669747900000000000000000000000000000000000000000000008152506040518060400160405280600381526020017f4c4759000000000000000000000000000000000000000000000000000000000081525081600390805190602001906200008d929190620000f0565b508060049080519060200190620000a6929190620000f0565b50505033600560006101000a81548173ffffffffffffffffffffffffffffffffffffffff021916908373ffffffffffffffffffffffffffffffffffffffff16021790555062000205565b828054620000fe90620001a0565b90600052602060002090601f0160209004810192826200012257600085556200016e565b82601f106200013d57805160ff19168380011785556200016e565b828001600101855582156200016e579182015b828111156200016d57825182559160200191906001019062000150565b5b5090506200017d919062000181565b5090565b5b808211156200019c57600081600090555060010162000182565b5090565b60006002820490506001821680620001b957607f821691505b60208210811415620001d057620001cf620001d6565b5b50919050565b7f4e487b7100000000000000000000000000000000000000000000000000000000600052602260045260246000fd5b61181780620002156000396000f3fe608060405234801561001057600080fd5b50600436106100f55760003560e01c806370a0823111610097578063a9059cbb11610066578063a9059cbb1461029c578063b923b205146102cc578063dd62ed3e146102d6578063e210b7d114610306576100f5565b806370a082311461020257806395d89b4114610232578063a0712d6814610250578063a457c2d71461026c576100f5565b806318160ddd116100d357806318160ddd1461016657806323b872dd14610184578063313ce567146101b457806339509351146101d2576100f5565b806306fdde03146100fa5780630754617214610118578063095ea7b314610136575b600080fd5b610102610324565b60405161010f919061124b565b60405180910390f35b6101206103b6565b60405161012d9190611215565b60405180910390f35b610150600480360381019061014b9190611000565b6103dc565b60405161015d9190611230565b60405180910390f35b61016e6103ff565b60405161017b919061138d565b60405180910390f35b61019e60048036038101906101999190610fb1565b610409565b6040516101ab9190611230565b60405180910390f35b6101bc610438565b6040516101c991906113a8565b60405180910390f35b6101ec60048036038101906101e79190611000565b610441565b6040516101f99190611230565b60405180910390f35b61021c60048036038101906102179190610f4c565b6104eb565b604051610229919061138d565b60405180910390f35b61023a610533565b604051610247919061124b565b60405180910390f35b61026a6004803603810190610265919061103c565b6105c5565b005b61028660048036038101906102819190611000565b6106b6565b6040516102939190611230565b60405180910390f35b6102b660048036038101906102b19190611000565b6107a0565b6040516102c39190611230565b60405180910390f35b6102d46107c3565b005b6102f060048036038101906102eb9190610f75565b61080a565b6040516102fd919061138d565b60405180910390f35b61030e610891565b60405161031b919061138d565b60405180910390f35b606060038054610333906114bd565b80601f016020809104026020016040519081016040528092919081815260200182805461035f906114bd565b80156103ac5780601f10610381576101008083540402835291602001916103ac565b820191906000526020600020905b81548152906001019060200180831161038f57829003601f168201915b5050505050905090565b600560009054906101000a900473ffffffffffffffffffffffffffffffffffffffff1681565b6000806103e76108d8565b90506103f48185856108e0565b600191505092915050565b6000600254905090565b6000806104146108d8565b9050610421858285610aab565b61042c858585610b37565b60019150509392505050565b60006012905090565b60008061044c6108d8565b90506104e0818585600160008673ffffffffffffffffffffffffffffffffffffffff1673ffffffffffffffffffffffffffffffffffffffff16815260200190815260200160002060008973ffffffffffffffffffffffffffffffffffffffff1673ffffffffffffffffffffffffffffffffffffffff168152602001908152602001600020546104db91906113df565b6108e0565b600191505092915050565b60008060008373ffffffffffffffffffffffffffffffffffffffff1673ffffffffffffffffffffffffffffffffffffffff168152602001908152602001600020549050919050565b606060048054610542906114bd565b80601f016020809104026020016040519081016040528092919081815260200182805461056e906114bd565b80156105bb5780601f10610590576101008083540402835291602001916105bb565b820191906000526020600020905b81548152906001019060200180831161059e57829003601f168201915b5050505050905090565b60075481600660003373ffffffffffffffffffffffffffffffffffffffff1673ffffffffffffffffffffffffffffffffffffffff1681526020019081526020016000205461061391906113df565b10610653576040517f08c379a000000000000000000000000000000000000000000000000000000000815260040161064a906112ed565b60405180910390fd5b61065d3382610db8565b80600660003373ffffffffffffffffffffffffffffffffffffffff1673ffffffffffffffffffffffffffffffffffffffff16815260200190815260200160002060008282546106ac91906113df565b9250508190555050565b6000806106c16108d8565b90506000600160008373ffffffffffffffffffffffffffffffffffffffff1673ffffffffffffffffffffffffffffffffffffffff16815260200190815260200160002060008673ffffffffffffffffffffffffffffffffffffffff1673ffffffffffffffffffffffffffffffffffffffff16815260200190815260200160002054905083811015610787576040517f08c379a000000000000000000000000000000000000000000000000000000000815260040161077e9061134d565b60405180910390fd5b61079482868684036108e0565b60019250505092915050565b6000806107ab6108d8565b90506107b8818585610b37565b600191505092915050565b6000600660003373ffffffffffffffffffffffffffffffffffffffff1673ffffffffffffffffffffffffffffffffffffffff16815260200190815260200160002081905550565b6000600160008473ffffffffffffffffffffffffffffffffffffffff1673ffffffffffffffffffffffffffffffffffffffff16815260200190815260200160002060008373ffffffffffffffffffffffffffffffffffffffff1673ffffffffffffffffffffffffffffffffffffffff16815260200190815260200160002054905092915050565b6000600660003373ffffffffffffffffffffffffffffffffffffffff1673ffffffffffffffffffffffffffffffffffffffff16815260200190815260200160002054905090565b600033905090565b600073ffffffffffffffffffffffffffffffffffffffff168373ffffffffffffffffffffffffffffffffffffffff161415610950576040517f08c379a00000000000000000000000000000000000000000000000000000000081526004016109479061132d565b60405180910390fd5b600073ffffffffffffffffffffffffffffffffffffffff168273ffffffffffffffffffffffffffffffffffffffff1614156109c0576040517f08c379a00000000000000000000000000000000000000000000000000000000081526004016109b79061128d565b60405180910390fd5b80600160008573ffffffffffffffffffffffffffffffffffffffff1673ffffffffffffffffffffffffffffffffffffffff16815260200190815260200160002060008473ffffffffffffffffffffffffffffffffffffffff1673ffffffffffffffffffffffffffffffffffffffff168152602001908152602001600020819055508173ffffffffffffffffffffffffffffffffffffffff168373ffffffffffffffffffffffffffffffffffffffff167f8c5be1e5ebec7d5bd14f71427d1e84f3dd0314c0f7b2291e5b200ac8c7c3b92583604051610a9e919061138d565b60405180910390a3505050565b6000610ab7848461080a565b90507fffffffffffffffffffffffffffffffffffffffffffffffffffffffffffffffff8114610b315781811015610b23576040517f08c379a0000000000000000000000000000000000000000000000000000000008152600401610b1a906112ad565b60405180910390fd5b610b3084848484036108e0565b5b50505050565b600073ffffffffffffffffffffffffffffffffffffffff168373ffffffffffffffffffffffffffffffffffffffff161415610ba7576040517f08c379a0000000000000000000000000000000000000000000000000000000008152600401610b9e9061130d565b60405180910390fd5b600073ffffffffffffffffffffffffffffffffffffffff168273ffffffffffffffffffffffffffffffffffffffff161415610c17576040517f08c379a0000000000000000000000000000000000000000000000000000000008152600401610c0e9061126d565b60405180910390fd5b610c22838383610f18565b60008060008573ffffffffffffffffffffffffffffffffffffffff1673ffffffffffffffffffffffffffffffffffffffff16815260200190815260200160002054905081811015610ca8576040517f08c379a0000000000000000000000000000000000000000000000000000000008152600401610c9f906112cd565b60405180910390fd5b8181036000808673ffffffffffffffffffffffffffffffffffffffff1673ffffffffffffffffffffffffffffffffffffffff16815260200190815260200160002081905550816000808573ffffffffffffffffffffffffffffffffffffffff1673ffffffffffffffffffffffffffffffffffffffff1681526020019081526020016000206000828254610d3b91906113df565b925050819055508273ffffffffffffffffffffffffffffffffffffffff168473ffffffffffffffffffffffffffffffffffffffff167fddf252ad1be2c89b69c2b068fc378daa952ba7f163c4a11628f55a4df523b3ef84604051610d9f919061138d565b60405180910390a3610db2848484610f1d565b50505050565b600073ffffffffffffffffffffffffffffffffffffffff168273ffffffffffffffffffffffffffffffffffffffff161415610e28576040517f08c379a0000000000000000000000000000000000000000000000000000000008152600401610e1f9061136d565b60405180910390fd5b610e3460008383610f18565b8060026000828254610e4691906113df565b92505081905550806000808473ffffffffffffffffffffffffffffffffffffffff1673ffffffffffffffffffffffffffffffffffffffff1681526020019081526020016000206000828254610e9b91906113df565b925050819055508173ffffffffffffffffffffffffffffffffffffffff16600073ffffffffffffffffffffffffffffffffffffffff167fddf252ad1be2c89b69c2b068fc378daa952ba7f163c4a11628f55a4df523b3ef83604051610f00919061138d565b60405180910390a3610f1460008383610f1d565b5050565b505050565b505050565b600081359050610f31816117b3565b92915050565b600081359050610f46816117ca565b92915050565b600060208284031215610f5e57600080fd5b6000610f6c84828501610f22565b91505092915050565b60008060408385031215610f8857600080fd5b6000610f9685828601610f22565b9250506020610fa785828601610f22565b9150509250929050565b600080600060608486031215610fc657600080fd5b6000610fd486828701610f22565b9350506020610fe586828701610f22565b9250506040610ff686828701610f37565b9150509250925092565b6000806040838503121561101357600080fd5b600061102185828601610f22565b925050602061103285828601610f37565b9150509250929050565b60006020828403121561104e57600080fd5b600061105c84828501610f37565b91505092915050565b61106e81611435565b82525050565b61107d81611447565b82525050565b600061108e826113c3565b61109881856113ce565b93506110a881856020860161148a565b6110b18161154d565b840191505092915050565b60006110c96023836113ce565b91506110d48261155e565b604082019050919050565b60006110ec6022836113ce565b91506110f7826115ad565b604082019050919050565b600061110f601d836113ce565b915061111a826115fc565b602082019050919050565b60006111326026836113ce565b915061113d82611625565b604082019050919050565b6000611155601b836113ce565b915061116082611674565b602082019050919050565b60006111786025836113ce565b91506111838261169d565b604082019050919050565b600061119b6024836113ce565b91506111a6826116ec565b604082019050919050565b60006111be6025836113ce565b91506111c98261173b565b604082019050919050565b60006111e1601f836113ce565b91506111ec8261178a565b602082019050919050565b61120081611473565b82525050565b61120f8161147d565b82525050565b600060208201905061122a6000830184611065565b92915050565b60006020820190506112456000830184611074565b92915050565b600060208201905081810360008301526112658184611083565b905092915050565b60006020820190508181036000830152611286816110bc565b9050919050565b600060208201905081810360008301526112a6816110df565b9050919050565b600060208201905081810360008301526112c681611102565b9050919050565b600060208201905081810360008301526112e681611125565b9050919050565b6000602082019050818103600083015261130681611148565b9050919050565b600060208201905081810360008301526113268161116b565b9050919050565b600060208201905081810360008301526113468161118e565b9050919050565b60006020820190508181036000830152611366816111b1565b9050919050565b60006020820190508181036000830152611386816111d4565b9050919050565b60006020820190506113a260008301846111f7565b92915050565b60006020820190506113bd6000830184611206565b92915050565b600081519050919050565b600082825260208201905092915050565b60006113ea82611473565b91506113f583611473565b9250827fffffffffffffffffffffffffffffffffffffffffffffffffffffffffffffffff0382111561142a576114296114ef565b5b828201905092915050565b600061144082611453565b9050919050565b60008115159050919050565b600073ffffffffffffffffffffffffffffffffffffffff82169050919050565b6000819050919050565b600060ff82169050919050565b60005b838110156114a857808201518184015260208101905061148d565b838111156114b7576000848401525b50505050565b600060028204905060018216806114d557607f821691505b602082108114156114e9576114e861151e565b5b50919050565b7f4e487b7100000000000000000000000000000000000000000000000000000000600052601160045260246000fd5b7f4e487b7100000000000000000000000000000000000000000000000000000000600052602260045260246000fd5b6000601f19601f8301169050919050565b7f45524332303a207472616e7366657220746f20746865207a65726f206164647260008201527f6573730000000000000000000000000000000000000000000000000000000000602082015250565b7f45524332303a20617070726f766520746f20746865207a65726f20616464726560008201527f7373000000000000000000000000000000000000000000000000000000000000602082015250565b7f45524332303a20696e73756666696369656e7420616c6c6f77616e6365000000600082015250565b7f45524332303a207472616e7366657220616d6f756e742065786365656473206260008201527f616c616e63650000000000000000000000000000000000000000000000000000602082015250565b7f4578636565646564204d6178204d696e7420416c6c6f63617465640000000000600082015250565b7f45524332303a207472616e736665722066726f6d20746865207a65726f20616460008201527f6472657373000000000000000000000000000000000000000000000000000000602082015250565b7f45524332303a20617070726f76652066726f6d20746865207a65726f2061646460008201527f7265737300000000000000000000000000000000000000000000000000000000602082015250565b7f45524332303a2064656372656173656420616c6c6f77616e63652062656c6f7760008201527f207a65726f000000000000000000000000000000000000000000000000000000602082015250565b7f45524332303a206d696e7420746f20746865207a65726f206164647265737300600082015250565b6117bc81611435565b81146117c757600080fd5b50565b6117d381611473565b81146117de57600080fd5b5056fea2646970667358221220392bd332f7ce455be6e92e263d277c283458142618a6e9cf29344b0ccf4c1f7e64736f6c63430008040033",
  "linkReferences": {},
  "deployedLinkReferences": {}
}