{
  "_format": "hh-sol-artifact-1",
  "contractName": "Mint",
  "sourceName": "contracts/Mint.sol",
  "abi": [
    {
      "inputs": [],
      "stateMutability": "payable",
      "type": "constructor"
    },
    {
      "anonymous": false,
      "inputs": [
        {
          "indexed": true,
          "internalType": "address",
          "name": "owner",
          "type": "address"
        },
        {
          "indexed": true,
          "internalType": "address",
          "name": "spender",
          "type": "address"
        },
        {
          "indexed": false,
          "internalType": "uint256",
          "name": "value",
          "type": "uint256"
        }
      ],
      "name": "Approval",
      "type": "event"
    },
    {
      "anonymous": false,
      "inputs": [
        {
          "indexed": true,
          "internalType": "address",
          "name": "from",
          "type": "address"
        },
        {
          "indexed": true,
          "internalType": "address",
          "name": "to",
          "type": "address"
        },
        {
          "indexed": false,
          "internalType": "uint256",
          "name": "value",
          "type": "uint256"
        }
      ],
      "name": "Transfer",
      "type": "event"
    },
    {
      "inputs": [
        {
          "internalType": "address",
          "name": "owner",
          "type": "address"
        },
        {
          "internalType": "address",
          "name": "spender",
          "type": "address"
        }
      ],
      "name": "allowance",
      "outputs": [
        {
          "internalType": "uint256",
          "name": "",
          "type": "uint256"
        }
      ],
      "stateMutability": "view",
      "type": "function"
    },
    {
      "inputs": [
        {
          "internalType": "address",
          "name": "spender",
          "type": "address"
        },
        {
          "internalType": "uint256",
          "name": "amount",
          "type": "uint256"
        }
      ],
      "name": "approve",
      "outputs": [
        {
          "internalType": "bool",
          "name": "",
          "type": "bool"
        }
      ],
      "stateMutability": "nonpayable",
      "type": "function"
    },
    {
      "inputs": [
        {
          "internalType": "address",
          "name": "account",
          "type": "address"
        }
      ],
      "name": "balanceOf",
      "outputs": [
        {
          "internalType": "uint256",
          "name": "",
          "type": "uint256"
        }
      ],
      "stateMutability": "view",
      "type": "function"
    },
    {
      "inputs": [],
      "name": "checkMint",
      "outputs": [
        {
          "internalType": "uint256",
          "name": "",
          "type": "uint256"
        }
      ],
      "stateMutability": "view",
      "type": "function"
    },
    {
      "inputs": [],
      "name": "decimals",
      "outputs": [
        {
          "internalType": "uint8",
          "name": "",
          "type": "uint8"
        }
      ],
      "stateMutability": "view",
      "type": "function"
    },
    {
      "inputs": [
        {
          "internalType": "address",
          "name": "spender",
          "type": "address"
        },
        {
          "internalType": "uint256",
          "name": "subtractedValue",
          "type": "uint256"
        }
      ],
      "name": "decreaseAllowance",
      "outputs": [
        {
          "internalType": "bool",
          "name": "",
          "type": "bool"
        }
      ],
      "stateMutability": "nonpayable",
      "type": "function"
    },
    {
      "inputs": [
        {
          "internalType": "address",
          "name": "spender",
          "type": "address"
        },
        {
          "internalType": "uint256",
          "name": "addedValue",
          "type": "uint256"
        }
      ],
      "name": "increaseAllowance",
      "outputs": [
        {
          "internalType": "bool",
          "name": "",
          "type": "bool"
        }
      ],
      "stateMutability": "nonpayable",
      "type": "function"
    },
    {
      "inputs": [
        {
          "internalType": "uint256",
          "name": "amount",
          "type": "uint256"
        }
      ],
      "name": "mint",
      "outputs": [],
      "stateMutability": "payable",
      "type": "function"
    },
    {
      "inputs": [],
      "name": "minter",
      "outputs": [
        {
          "internalType": "address",
          "name": "",
          "type": "address"
        }
      ],
      "stateMutability": "view",
      "type": "function"
    },
    {
      "inputs": [],
      "name": "name",
      "outputs": [
        {
          "internalType": "string",
          "name": "",
          "type": "string"
        }
      ],
      "stateMutability": "view",
      "type": "function"
    },
    {
      "inputs": [
        {
          "internalType": "address",
          "name": "_in",
          "type": "address"
        }
      ],
      "name": "setWhitelist",
      "outputs": [],
      "stateMutability": "nonpayable",
      "type": "function"
    },
    {
      "inputs": [],
      "name": "symbol",
      "outputs": [
        {
          "internalType": "string",
          "name": "",
          "type": "string"
        }
      ],
      "stateMutability": "view",
      "type": "function"
    },
    {
      "inputs": [],
      "name": "totalSupply",
      "outputs": [
        {
          "internalType": "uint256",
          "name": "",
          "type": "uint256"
        }
      ],
      "stateMutability": "view",
      "type": "function"
    },
    {
      "inputs": [
        {
          "internalType": "address",
          "name": "to",
          "type": "address"
        },
        {
          "internalType": "uint256",
          "name": "amount",
          "type": "uint256"
        }
      ],
      "name": "transfer",
      "outputs": [
        {
          "internalType": "bool",
          "name": "",
          "type": "bool"
        }
      ],
      "stateMutability": "nonpayable",
      "type": "function"
    },
    {
      "inputs": [
        {
          "internalType": "address",
          "name": "from",
          "type": "address"
        },
        {
          "internalType": "address",
          "name": "to",
          "type": "address"
        },
        {
          "internalType": "uint256",
          "name": "amount",
          "type": "uint256"
        }
      ],
      "name": "transferFrom",
      "outputs": [
        {
          "internalType": "bool",
          "name": "",
          "type": "bool"
        }
      ],
      "stateMutability": "nonpayable",
      "type": "function"
    }
  ],
  "bytecode": "0x608060405260056007556040518060400160405280600981526020017f4c6f6e67657669747900000000000000000000000000000000000000000000008152506040518060400160405280600381526020017f4c4759000000000000000000000000000000000000000000000000000000000081525081600390805190602001906200008d929190620000f0565b508060049080519060200190620000a6929190620000f0565b50505033600560006101000a81548173ffffffffffffffffffffffffffffffffffffffff021916908373ffffffffffffffffffffffffffffffffffffffff16021790555062000205565b828054620000fe90620001a0565b90600052602060002090601f0160209004810192826200012257600085556200016e565b82601f106200013d57805160ff19168380011785556200016e565b828001600101855582156200016e579182015b828111156200016d57825182559160200191906001019062000150565b5b5090506200017d919062000181565b5090565b5b808211156200019c57600081600090555060010162000182565b5090565b60006002820490506001821680620001b957607f821691505b60208210811415620001d057620001cf620001d6565b5b50919050565b7f4e487b7100000000000000000000000000000000000000000000000000000000600052602260045260246000fd5b6118d380620002156000396000f3fe6080604052600436106100e85760003560e01c806370a082311161008a578063a457c2d711610059578063a457c2d7146102fd578063a9059cbb1461033a578063dd62ed3e14610377578063e210b7d1146103b4576100e8565b806370a0823114610250578063854cff2f1461028d57806395d89b41146102b6578063a0712d68146102e1576100e8565b806318160ddd116100c657806318160ddd1461018057806323b872dd146101ab578063313ce567146101e85780633950935114610213576100e8565b806306fdde03146100ed5780630754617214610118578063095ea7b314610143575b600080fd5b3480156100f957600080fd5b506101026103df565b60405161010f9190611307565b60405180910390f35b34801561012457600080fd5b5061012d610471565b60405161013a91906112d1565b60405180910390f35b34801561014f57600080fd5b5061016a600480360381019061016591906110bc565b610497565b60405161017791906112ec565b60405180910390f35b34801561018c57600080fd5b506101956104ba565b6040516101a29190611449565b60405180910390f35b3480156101b757600080fd5b506101d260048036038101906101cd919061106d565b6104c4565b6040516101df91906112ec565b60405180910390f35b3480156101f457600080fd5b506101fd6104f3565b60405161020a9190611464565b60405180910390f35b34801561021f57600080fd5b5061023a600480360381019061023591906110bc565b6104fc565b60405161024791906112ec565b60405180910390f35b34801561025c57600080fd5b5061027760048036038101906102729190611008565b6105a6565b6040516102849190611449565b60405180910390f35b34801561029957600080fd5b506102b460048036038101906102af9190611008565b6105ee565b005b3480156102c257600080fd5b506102cb610636565b6040516102d89190611307565b60405180910390f35b6102fb60048036038101906102f691906110f8565b6106c8565b005b34801561030957600080fd5b50610324600480360381019061031f91906110bc565b6107b9565b60405161033191906112ec565b60405180910390f35b34801561034657600080fd5b50610361600480360381019061035c91906110bc565b6108a3565b60405161036e91906112ec565b60405180910390f35b34801561038357600080fd5b5061039e60048036038101906103999190611031565b6108c6565b6040516103ab9190611449565b60405180910390f35b3480156103c057600080fd5b506103c961094d565b6040516103d69190611449565b60405180910390f35b6060600380546103ee90611579565b80601f016020809104026020016040519081016040528092919081815260200182805461041a90611579565b80156104675780601f1061043c57610100808354040283529160200191610467565b820191906000526020600020905b81548152906001019060200180831161044a57829003601f168201915b5050505050905090565b600560009054906101000a900473ffffffffffffffffffffffffffffffffffffffff1681565b6000806104a2610994565b90506104af81858561099c565b600191505092915050565b6000600254905090565b6000806104cf610994565b90506104dc858285610b67565b6104e7858585610bf3565b60019150509392505050565b60006012905090565b600080610507610994565b905061059b818585600160008673ffffffffffffffffffffffffffffffffffffffff1673ffffffffffffffffffffffffffffffffffffffff16815260200190815260200160002060008973ffffffffffffffffffffffffffffffffffffffff1673ffffffffffffffffffffffffffffffffffffffff16815260200190815260200160002054610596919061149b565b61099c565b600191505092915050565b60008060008373ffffffffffffffffffffffffffffffffffffffff1673ffffffffffffffffffffffffffffffffffffffff168152602001908152602001600020549050919050565b6000600660008373ffffffffffffffffffffffffffffffffffffffff1673ffffffffffffffffffffffffffffffffffffffff1681526020019081526020016000208190555050565b60606004805461064590611579565b80601f016020809104026020016040519081016040528092919081815260200182805461067190611579565b80156106be5780601f10610693576101008083540402835291602001916106be565b820191906000526020600020905b8154815290600101906020018083116106a157829003601f168201915b5050505050905090565b60075481600660003373ffffffffffffffffffffffffffffffffffffffff1673ffffffffffffffffffffffffffffffffffffffff16815260200190815260200160002054610716919061149b565b10610756576040517f08c379a000000000000000000000000000000000000000000000000000000000815260040161074d906113a9565b60405180910390fd5b6107603382610e74565b80600660003373ffffffffffffffffffffffffffffffffffffffff1673ffffffffffffffffffffffffffffffffffffffff16815260200190815260200160002060008282546107af919061149b565b9250508190555050565b6000806107c4610994565b90506000600160008373ffffffffffffffffffffffffffffffffffffffff1673ffffffffffffffffffffffffffffffffffffffff16815260200190815260200160002060008673ffffffffffffffffffffffffffffffffffffffff1673ffffffffffffffffffffffffffffffffffffffff1681526020019081526020016000205490508381101561088a576040517f08c379a000000000000000000000000000000000000000000000000000000000815260040161088190611409565b60405180910390fd5b610897828686840361099c565b60019250505092915050565b6000806108ae610994565b90506108bb818585610bf3565b600191505092915050565b6000600160008473ffffffffffffffffffffffffffffffffffffffff1673ffffffffffffffffffffffffffffffffffffffff16815260200190815260200160002060008373ffffffffffffffffffffffffffffffffffffffff1673ffffffffffffffffffffffffffffffffffffffff16815260200190815260200160002054905092915050565b6000600660003373ffffffffffffffffffffffffffffffffffffffff1673ffffffffffffffffffffffffffffffffffffffff16815260200190815260200160002054905090565b600033905090565b600073ffffffffffffffffffffffffffffffffffffffff168373ffffffffffffffffffffffffffffffffffffffff161415610a0c576040517f08c379a0000000000000000000000000000000000000000000000000000000008152600401610a03906113e9565b60405180910390fd5b600073ffffffffffffffffffffffffffffffffffffffff168273ffffffffffffffffffffffffffffffffffffffff161415610a7c576040517f08c379a0000000000000000000000000000000000000000000000000000000008152600401610a7390611349565b60405180910390fd5b80600160008573ffffffffffffffffffffffffffffffffffffffff1673ffffffffffffffffffffffffffffffffffffffff16815260200190815260200160002060008473ffffffffffffffffffffffffffffffffffffffff1673ffffffffffffffffffffffffffffffffffffffff168152602001908152602001600020819055508173ffffffffffffffffffffffffffffffffffffffff168373ffffffffffffffffffffffffffffffffffffffff167f8c5be1e5ebec7d5bd14f71427d1e84f3dd0314c0f7b2291e5b200ac8c7c3b92583604051610b5a9190611449565b60405180910390a3505050565b6000610b7384846108c6565b90507fffffffffffffffffffffffffffffffffffffffffffffffffffffffffffffffff8114610bed5781811015610bdf576040517f08c379a0000000000000000000000000000000000000000000000000000000008152600401610bd690611369565b60405180910390fd5b610bec848484840361099c565b5b50505050565b600073ffffffffffffffffffffffffffffffffffffffff168373ffffffffffffffffffffffffffffffffffffffff161415610c63576040517f08c379a0000000000000000000000000000000000000000000000000000000008152600401610c5a906113c9565b60405180910390fd5b600073ffffffffffffffffffffffffffffffffffffffff168273ffffffffffffffffffffffffffffffffffffffff161415610cd3576040517f08c379a0000000000000000000000000000000000000000000000000000000008152600401610cca90611329565b60405180910390fd5b610cde838383610fd4565b60008060008573ffffffffffffffffffffffffffffffffffffffff1673ffffffffffffffffffffffffffffffffffffffff16815260200190815260200160002054905081811015610d64576040517f08c379a0000000000000000000000000000000000000000000000000000000008152600401610d5b90611389565b60405180910390fd5b8181036000808673ffffffffffffffffffffffffffffffffffffffff1673ffffffffffffffffffffffffffffffffffffffff16815260200190815260200160002081905550816000808573ffffffffffffffffffffffffffffffffffffffff1673ffffffffffffffffffffffffffffffffffffffff1681526020019081526020016000206000828254610df7919061149b565b925050819055508273ffffffffffffffffffffffffffffffffffffffff168473ffffffffffffffffffffffffffffffffffffffff167fddf252ad1be2c89b69c2b068fc378daa952ba7f163c4a11628f55a4df523b3ef84604051610e5b9190611449565b60405180910390a3610e6e848484610fd9565b50505050565b600073ffffffffffffffffffffffffffffffffffffffff168273ffffffffffffffffffffffffffffffffffffffff161415610ee4576040517f08c379a0000000000000000000000000000000000000000000000000000000008152600401610edb90611429565b60405180910390fd5b610ef060008383610fd4565b8060026000828254610f02919061149b565b92505081905550806000808473ffffffffffffffffffffffffffffffffffffffff1673ffffffffffffffffffffffffffffffffffffffff1681526020019081526020016000206000828254610f57919061149b565b925050819055508173ffffffffffffffffffffffffffffffffffffffff16600073ffffffffffffffffffffffffffffffffffffffff167fddf252ad1be2c89b69c2b068fc378daa952ba7f163c4a11628f55a4df523b3ef83604051610fbc9190611449565b60405180910390a3610fd060008383610fd9565b5050565b505050565b505050565b600081359050610fed8161186f565b92915050565b60008135905061100281611886565b92915050565b60006020828403121561101a57600080fd5b600061102884828501610fde565b91505092915050565b6000806040838503121561104457600080fd5b600061105285828601610fde565b925050602061106385828601610fde565b9150509250929050565b60008060006060848603121561108257600080fd5b600061109086828701610fde565b93505060206110a186828701610fde565b92505060406110b286828701610ff3565b9150509250925092565b600080604083850312156110cf57600080fd5b60006110dd85828601610fde565b92505060206110ee85828601610ff3565b9150509250929050565b60006020828403121561110a57600080fd5b600061111884828501610ff3565b91505092915050565b61112a816114f1565b82525050565b61113981611503565b82525050565b600061114a8261147f565b611154818561148a565b9350611164818560208601611546565b61116d81611609565b840191505092915050565b600061118560238361148a565b91506111908261161a565b604082019050919050565b60006111a860228361148a565b91506111b382611669565b604082019050919050565b60006111cb601d8361148a565b91506111d6826116b8565b602082019050919050565b60006111ee60268361148a565b91506111f9826116e1565b604082019050919050565b6000611211601b8361148a565b915061121c82611730565b602082019050919050565b600061123460258361148a565b915061123f82611759565b604082019050919050565b600061125760248361148a565b9150611262826117a8565b604082019050919050565b600061127a60258361148a565b9150611285826117f7565b604082019050919050565b600061129d601f8361148a565b91506112a882611846565b602082019050919050565b6112bc8161152f565b82525050565b6112cb81611539565b82525050565b60006020820190506112e66000830184611121565b92915050565b60006020820190506113016000830184611130565b92915050565b60006020820190508181036000830152611321818461113f565b905092915050565b6000602082019050818103600083015261134281611178565b9050919050565b600060208201905081810360008301526113628161119b565b9050919050565b60006020820190508181036000830152611382816111be565b9050919050565b600060208201905081810360008301526113a2816111e1565b9050919050565b600060208201905081810360008301526113c281611204565b9050919050565b600060208201905081810360008301526113e281611227565b9050919050565b600060208201905081810360008301526114028161124a565b9050919050565b600060208201905081810360008301526114228161126d565b9050919050565b6000602082019050818103600083015261144281611290565b9050919050565b600060208201905061145e60008301846112b3565b92915050565b600060208201905061147960008301846112c2565b92915050565b600081519050919050565b600082825260208201905092915050565b60006114a68261152f565b91506114b18361152f565b9250827fffffffffffffffffffffffffffffffffffffffffffffffffffffffffffffffff038211156114e6576114e56115ab565b5b828201905092915050565b60006114fc8261150f565b9050919050565b60008115159050919050565b600073ffffffffffffffffffffffffffffffffffffffff82169050919050565b6000819050919050565b600060ff82169050919050565b60005b83811015611564578082015181840152602081019050611549565b83811115611573576000848401525b50505050565b6000600282049050600182168061159157607f821691505b602082108114156115a5576115a46115da565b5b50919050565b7f4e487b7100000000000000000000000000000000000000000000000000000000600052601160045260246000fd5b7f4e487b7100000000000000000000000000000000000000000000000000000000600052602260045260246000fd5b6000601f19601f8301169050919050565b7f45524332303a207472616e7366657220746f20746865207a65726f206164647260008201527f6573730000000000000000000000000000000000000000000000000000000000602082015250565b7f45524332303a20617070726f766520746f20746865207a65726f20616464726560008201527f7373000000000000000000000000000000000000000000000000000000000000602082015250565b7f45524332303a20696e73756666696369656e7420616c6c6f77616e6365000000600082015250565b7f45524332303a207472616e7366657220616d6f756e742065786365656473206260008201527f616c616e63650000000000000000000000000000000000000000000000000000602082015250565b7f4578636565646564204d6178204d696e7420416c6c6f63617465640000000000600082015250565b7f45524332303a207472616e736665722066726f6d20746865207a65726f20616460008201527f6472657373000000000000000000000000000000000000000000000000000000602082015250565b7f45524332303a20617070726f76652066726f6d20746865207a65726f2061646460008201527f7265737300000000000000000000000000000000000000000000000000000000602082015250565b7f45524332303a2064656372656173656420616c6c6f77616e63652062656c6f7760008201527f207a65726f000000000000000000000000000000000000000000000000000000602082015250565b7f45524332303a206d696e7420746f20746865207a65726f206164647265737300600082015250565b611878816114f1565b811461188357600080fd5b50565b61188f8161152f565b811461189a57600080fd5b5056fea26469706673582212208a4ba692753f6db82381cc4a570bd892d4b0dd606ea961d065343fd83160cfe664736f6c63430008040033",
  "linkReferences": {},
  "deployedLinkReferences": {}
}